:100000000C9434000C9451000C9451000C94510049
:100010000C9451000C9451000C9451000C9451001C
:100020000C9451000C9451000C9451000C9451000C
:100030000C9451000C9451000C9474010C945100D8
:100040000C9451000C9451000C9451000C945100EC
:100050000C9451000C9451000C9451000C945100DC
:100060000C9451000C94510011241FBECFEFD8E026
:10007000DEBFCDBF11E0A0E0B1E0E4E0F4E002C0FB
:1000800005900D92A431B107D9F721E0A4E1B1E0C8
:1000900001C01D92AA31B207E1F70E9453000C94EF
:1000A00000020C94000081E084B98EE00E942C01D3
:1000B0000E949A010E9466010E94680178940E9441
:1000C000F80060E080E00E94ED0082E091E00E9494
:1000D0001201C0E0D0E02196409100015091010151
:1000E00066E171E0CE010E94C00186E191E00E94CC
:1000F000B40181E191E00E94B40161E080E00E94DE
:10010000ED0086E191E00E9412012FEF89E698E16F
:10011000215080409040E1F700C00000DCCF2F9AD2
:1001200082E08A95F1F700C02F980895CF93DF936E
:10013000D82F6623C1F0449A2E9887B18F6087B973
:10014000C8B1C07F8D2F82958F708C2B88B90E948B
:100150008F00DF70DC2BD8B90E948F00CF60C8B948
:10016000DF91CF9108954498E7CF44982E9A87B1B4
:10017000807F87B92F9A82E08A95F1F700C086B117
:100180002F9892E09A95F1F700C02F9A92E09A95F5
:10019000F1F700C096B19F708295807F2F98892BD0
:1001A00008950E94B50087FDFCCF8AE08A95F1F79B
:1001B00000C00C94B500CF93C82F0E94D10060E01E
:1001C0008C2FCF910C949600CF93C82F0E94D10012
:1001D00061E08C2FCF910C949600611103C0805880
:1001E0000C94DB008054FCCF0E94D10090E0089575
:1001F00081E00C94DB0082E00C94DB00CF93C82FED
:100200000E94D100CA3049F4803428F080E0805840
:10021000CF910C94DB0080E4FACF61E08C2FCF917A
:100220000C949600CF93DF93EC018991811103C068
:10023000DF91CF9108950E94FE00F7CFCF93DF9317
:10024000EC01FE0184912196811103C0DF91CF91D1
:1002500008950E94FE00F5CFCF93C82F87B18F601D
:1002600087B93C9A269A279A8FEF9CE70197F1F776
:1002700000C00000419A409A0E948F008FE097E2F0
:100280000197F1F700C000000E948F009AEA9A954A
:10029000F1F700C00E948F008AEA8A95F1F700C04A
:1002A00040980E948F009AEA9A95F1F700C088E280
:1002B0000E94DB0088E00E94DB000E94F80086E0DC
:1002C0000E94DB008C2FCF910C94DB0016BC0895AC
:1002D00082E084BD83E085BD8DE787BDEEE6F0E07A
:1002E00080818260808308951F920F920FB60F92D3
:1002F00011242F938F939F93809114019091150156
:100300000196893E23E0920764F49093150180934F
:1003100014019F918F912F910F900FBE0F901F90FE
:100320001895109215011092140185B191E089275A
:1003300085B9EFCF1092C50083E38093C40088E1B4
:100340008093C10086E08093C20008958091C00030
:1003500087FFFCCF8091C60008959091C00095FF63
:10036000FCCF8093C6000895CF93DF93EC01899171
:10037000811103C0DF91CF9108950E94AD01F7CFA5
:100380004532510520F4423010F00C94CB01FB01B2
:100390001082CB010895BB274A3031F4992322F40F
:1003A000BDE2909581959F4F0C94D701BB27FB012F
:1003B0005527AA27880F991FAA1FA41710F0A41B5E
:1003C00083955051B9F7A05DAA3308F0A95DA193B8
:1003D000009779F7B111B1931192CB010C94F00110
:1003E000DC01FC01672F71917723E1F7329704C09C
:1003F0007C916D9370836291AE17BF07C8F3089527
:04040000F894FFCF9E
:100404000A00426173696366756E6374696F6E7323
:04041400000A0000DA
:00000001FF
