:100000000C9434000C9451000C9451000C94510049
:100010000C9451000C9451000C9451000C9451001C
:100020000C9451000C9451000C9451000C9451000C
:100030000C9451000C9451000C9451000C945100FC
:100040000C9451000C9451000C9451000C945100EC
:100050000C9451000C9451000C9451000C945100DC
:100060000C9451000C94510011241FBECFEFD8E026
:10007000DEBFCDBF11E0A0E0B1E0E2E7F3E002C0F7
:1000800005900D92A431B107D9F721E0A4E1B1E0C8
:1000900001C01D92A831B207E1F70E9453000C94F1
:1000A000B7010C9400008EE00E9417010E945101DC
:1000B0000E94E30060E080E00E94D80082E091E0CE
:1000C0000E94FD00C0E0D0E02196409100015091D7
:1000D000010164E171E0CE010E94770184E191E0C9
:1000E0000E946B0182E191E00E946B0161E080E07F
:1000F0000E94D80084E191E00E94FD002FEF89E684
:1001000098E1215080409040E1F700C00000DCCF32
:100110002F9A00002F980895CF93DF93D82F66234E
:10012000C1F0449A2E9887B18F6087B9C8B1C07F5B
:100130008D2F82958F708C2B88B90E948800DF707C
:10014000DC2BD8B90E948800CF60C8B9DF91CF916D
:1001500008954498E7CF44982E9A87B1807F87B955
:100160002F9A000086B12F9800002F9A000096B1B8
:100170009F708295807F2F98892B08950E94AB00F5
:1001800087FDFCCF00C000C00C94AB00CF93C82FFC
:100190000E94BE0060E08C2FCF910C948C00CF9316
:1001A000C82F0E94BE0061E08C2FCF910C948C0070
:1001B000611103C080580C94C6008054FCCF0E948B
:1001C000BE0090E0089581E00C94C60082E00C949B
:1001D000C600CF93C82F0E94BE00CA3049F48034B5
:1001E00028F080E08058CF910C94C60080E4FACFCC
:1001F00061E08C2FCF910C948C00CF93DF93EC01B6
:100200008991811103C0DF91CF9108950E94E90087
:10021000F7CFCF93DF93EC01FE01849121968111FA
:1002200003C0DF91CF9108950E94E900F5CFCF93ED
:10023000C82F87B18F6087B93C9A269A279A8FE793
:100240009CE00197F1F700C00000419A409A0E949B
:10025000880087EE93E00197F1F700C000000E944C
:10026000880091E19A95F1F700000E94880081E1F1
:100270008A95F1F7000040980E94880091E19A95D4
:10028000F1F7000088E20E94C60088E00E94C600E4
:100290000E94E30086E00E94C6008C2FCF910C9450
:1002A000C6001092C50083E38093C40088E1809368
:1002B000C10086E08093C20008958091C00087FF4E
:1002C000FCCF8091C60008959091C00095FFFCCFAF
:1002D0008093C6000895CF93DF93EC01899181113B
:1002E00003C0DF91CF9108950E946401F7CF45329A
:1002F000510520F4423010F00C948201FB01108271
:10030000CB010895BB274A3031F4992322F4BDE292
:10031000909581959F4F0C948E01BB27FB0155272B
:10032000AA27880F991FAA1FA41710F0A41B839552
:100330005051B9F7A05DAA3308F0A95DA1930097C9
:1003400079F7B111B1931192CB010C94A701DC01A3
:10035000FC01672F71917723E1F7329704C07C91FC
:100360006D9370836291AE17BF07C8F30895F89438
:02037000FFCFBD
:100372000A00446973706C61792074657374696EE4
:0403820067000A0006
:00000001FF
